:100000000C943A000C9457000C9457000C94570031
:100010000C94DA050C949D040C9457000C94570032
:100020000C9457000C9457000C9457000C948F00BC
:100030000C9457000C9457000C94B2000C94570089
:100040000C9457000C9457000C9401060C94570024
:100050000C9457000C9457000C9457000C945700C4
:100060000C9457000C9457006364696E6F7073753D
:1000700078585B0011241FBECFEFD8E0DEBFCDBFA4
:1000800011E0A0E0B1E0E2ECF9E102C005900D92D0
:10009000A036B107D9F711E0A0E6B1E001C01D928A
:1000A000AB37B107E1F70E94D7000C94DF0C0C943A
:1000B0000000E0EBF0E080818360808380818068D5
:1000C000808388E18093B30080E88093B400E1EB03
:1000D000F0E08081876080830895A1E8B0E08C9192
:1000E00088608C93EFE6F0E080818260808380E31B
:1000F00095E790938900809388008C9184608C931D
:10010000089585B5886085BDEEE6F0E08081826067
:10011000808380E387BD85B5846085BD08951F9287
:100120000F920FB60F9211248F939F9380916001CD
:10013000882311F42D9A2C9880916001813029F444
:100140002D9885B190E1892785B980916001823031
:1001500011F42D982C9A9F918F910F900FBE0F90B4
:100160001F9018951F920F920FB60F9211248F9324
:100170009F9380916001823099F48091610184366F
:1001800054F488B190E2892788B9809161018F5F2A
:100190008093610105C08091610184360CF045981F
:1001A0009F918F910F900FBE0F901F9018952F92D7
:1001B0003F924F925F926F927F928F929F92AF92F7
:1001C000BF92CF92DF92EF92FF920F931F93DF9334
:1001D000CF93CDB7DEB7E4970FB6F894DEBF0FBE6E
:1001E000CDBF84B1886384B93D9A809168008660F0
:1001F0008093680078940E94AB030E9474040E946C
:1002000046050E94A4050E9459000E946D000E94AC
:10021000810081E00E945A0480E062E00E946A044A
:1002200080E091E00E944E0481E061E00E946A0457
:100230008DE091E00E944E0480E197E220E931E0F8
:10024000F9013197F1F70197D9F781E00E945A043B
:100250000E94750320916B0130916C01C9016AE025
:1002600070E00E94AC066EA77FA7C9016AE070E04B
:100270000E94AC068CA79DA79A8180E02981820FFD
:10028000911D2AE530E0AC01429FC001439F900DD3
:10029000529F900D112460E570E00E9498062B019A
:1002A00080E491E0480E591EC2016AE070E00E94AD
:1002B000AC061B01C2016AE070E00E94AC0688AB8C
:1002C00099AB0E947503ADB7BEB750970FB6F894BF
:1002D000BEBF0FBEADBFEDB7FEB731961AE0E12E3F
:1002E000F12CEC0EFD1E1296FC92EE921197A1E1FC
:1002F000AA2EB12CB382A2827CE1C72E71E0D72E48
:10030000D582C4826EE2662E61E0762E77826682A6
:1003100020863186B8A9B28729A9238750E3852E84
:1003200051E0952E958684868091680190916901AF
:10033000978786870E94BF064DB75EB7405F5F4FC5
:100340000FB6F8945EBF0FBE4DBF80E060E00E9424
:100350006A04C7010E944E048DB79EB70A970FB674
:10036000F8949EBF0FBE8DBFEDB7FEB731968E01DC
:10037000055E1F4FADB7BEB712961C930E93119733
:10038000B382A28282E391E095838483BEA5B68383
:100390002FA527833CA530874DA541870E94BF0626
:1003A0008DB79EB70A960FB6F8949EBF0FBE8DBF4D
:1003B00081E060E00E946A04C8010E944E04AA2401
:1003C000A394EAAABF2CCBAADCAA6801809165019C
:1003D0008130B1F41092650120916B0130916C0174
:1003E000C9016AE070E00E94AC066EA77FA7C90150
:1003F0006AE070E00E94AC068CA79DA7AA24A39493
:10040000CE0101960E941004813009F05EC0FA808E
:10041000EE248981D701A80FB11DEAE5F0E0AE9F77
:10042000C001AF9F900DBE9F900D112460E570E05C
:100430000E9498062B0120E431E0420E531EC201B7
:100440006AE070E00E94AC061B010E9475034DB784
:100450005EB7485050400FB6F8945EBF0FBE4DBF18
:10046000EDB7FEB7319623E030E02C0F3D1FADB75E
:10047000BEB712963C932E93119747E050E05383FA
:1004800042838EE391E095838483268237820E94A3
:10049000BF068E010D5F1F4FADB7BEB718960FB6E2
:1004A000F894BEBF0FBEADBF02C00E94D205F801D6
:1004B00081918F018823C9F7C2016AE070E00E9430
:1004C000AC0688AB99ABAA24A39480916A018130D1
:1004D00011F4AA24A3948091660190916701813060
:1004E000910589F4C20167EE7FEF0E94AC066C5C57
:1004F0006093B3004EE2642E41E0742E30E3832E0D
:1005000031E0932E1CC00297D1F480916801909144
:100510006901880F991F880F991F909581959F4FAA
:100520006AE070E00E94AC066C5C6093B30090E3FC
:10053000692E91E0792E8EE2882E81E0982EF1E0EE
:10054000AF1609F043CF80916B0190916C01841537
:1005500095058CF44D968415950534F422E020938E
:10056000600104E411E00DC0A092600110926101ED
:1005700009E411E006C010926001109261010EE4DE
:1005800011E04DB75EB7405150400FB6F8945EBFD2
:100590000FBE4DBFEDB7FEB731962AA9ADB7BEB7B6
:1005A00011962C9311971296BC9241E150E053831F
:1005B00042835BA954838CA98583778266822086D7
:1005C000318698A99287A9A9A38795868486809168
:1005D000680190916901978786870E94BF06EDB7F1
:1005E000FEB770960FB6F894FEBF0FBEEDBF80E069
:1005F00060E00E946A048AA99B2D0E944E042DB7D8
:100600003EB72C5030400FB6F8943EBF0FBE2DBF02
:10061000EDB7FEB73196ADB7BEB71196CC92119734
:100620001296DC9221E130E03383228343E551E0EE
:10063000558344835EA556838FA587839CA59087A9
:10064000ADA5A187138702870E94BF06EDB7FEB74D
:100650003C960FB6F894FEBF0FBEEDBF81E066E09A
:100660000E946A04C6010E944E04AA24AFCE3B9A9F
:1006700080E699E00197F1F73B988CE091E00197D3
:10068000F1F7339B02C080E00895339BFECF88ECE6
:1006900090E00197F1F781E008953B9A8AE08A950E
:1006A000F1F73B98439880EF90E00197F1F70895B8
:1006B0003B9A80EF90E00197F1F73B9843988AE0EE
:1006C0008A95F1F708950F931F93082F18E000FF04
:1006D00003C00E944D0302C00E945803115011F044
:1006E0000695F5CF1F910F9108950E943703882337
:1006F00031F08CEC0E94630384E40E94630308954C
:100700003B9A8AE08A95F1F73B98439885E38A956E
:10071000F1F7339906C088EC90E00197F1F780E09B
:10072000089588EC90E00197F1F781E00895FF9239
:100730000F931F9388E0F82E00E011E00E948003E1
:100740008111012BFA9411F0110FF8CF802F1F9116
:100750000F91FF900895EF92FF920F931F93DF93F5
:10076000CF93CDB7DEB729970FB6F894DEBF0FBE93
:10077000CDBF3B9843980E943703882309F442C0B9
:100780008CEC0E9463038EEB0E9463038E010F5F6B
:100790001F4F9AE0E92EF12CEC0EFD1E0E949703EC
:1007A000F80181938F01EE15FF05C1F70E94370311
:1007B000882341F18CEC0E9463038EE40E94630362
:1007C0008B810E9463038C810E9463038FE70E94E8
:1007D000630380E991E00197F1F70E9437038823D2
:1007E00089F08CEC0E94630388E40E94630388EC28
:1007F00090E020E931E0F9013197F1F70197D9F75D
:1008000081E001C080E029960FB6F894DEBF0FBEEC
:10081000CDBFCF91DF911F910F91FF90EF90089581
:100820001F93CF93DF93EC010E9480038823B9F0DC
:100830000E943703882391F08CEC0E9463038EEBB7
:100840000E9463030E94970388830E949703898311
:1008500010E00E9497031F5F1730D9F781E0DF9106
:10086000CF911F9108959BB19F709BB99BB1807FE1
:10087000892B8BB9299A299A299808951F93182FA3
:10088000289A0E943304812F8295807F0E9433042E
:1008900080E49FE10197F1F71F910895CF93DF93D3
:1008A000EC0102C00E943E0489918823D9F7DF91B0
:1008B000CF9108951F93182F28980E943304812FF9
:1008C0008295807F0E94330480E49FE10197F1F7D5
:1008D0001F910895882319F4862F805802C0862F0F
:1008E00080540E945A04089584B1836084B98AB107
:1008F000806F8AB980E69AEE0197F1F780E30E9453
:10090000330480E29EE40197F1F780E30E94330410
:1009100080EE91E00197F1F780E30E94330480E2DA
:100920000E94330480E49FE10197F1F788E20E947E
:100930005A048FE00E945A0408951F920F920FB636
:100940000F9211242F933F934F935F936F937F9355
:100950008F939F93AF93BF93EF93FF9399B1892F99
:100960008C7080937001892F8470809371019870CE
:1009700090936D0120916E01222351F4992321F46B
:100980008823D9F181E010C08823B9F583E020C025
:10099000213069F4992329F4882379F510926F01A5
:1009A00019C0882351F182E080936F011DC022306D
:1009B00051F4992321F0882301F583E0F5CF8823B2
:1009C000E1F081E005C0992359F08823B1F082E07D
:1009D00080936F0180916B0190916C01019709C028
:1009E000882359F410926F0180916B0190916C01F2
:1009F000019690936C0180936B0180916B019091B3
:100A00006C0133E0853893071CF084E893E005C05F
:100A1000845F914034F484EF91E090936C01809373
:100A20006B0190916F01921701F181E08093650154
:100A300090936E0180916B0190916C016AE070E07F
:100A40000E94AC06605D84E690E00E94840B809179
:100A50006B0190916C016AE070E00E94AC06682F17
:100A6000605D88EC90E00E94840BFF91EF91BF9154
:100A7000AF919F918F917F916F915F914F913F9136
:100A80002F910F900FBE0F901F901895CF93DF936B
:100A90008AB1837F8AB98BB18C608BB980916D00EC
:100AA0008C6080936D0089B1982F90739093700142
:100AB000982F907190937101807280936D018823BB
:100AC00039F4992319F410926E0109C081E005C030
:100AD000992311F483E001C082E080936E0180913C
:100AE0006E0180936F011092650184E690E00E9490
:100AF0007C0BC82FD0E0E09788EC90E00E947C0B44
:100B0000CB35D105C4F4C233D105ACF0282F30E089
:100B100020533040CE0153E0880F991F5A95E1F7DA
:100B2000CC0FDD1F8C0F9D1F280F391F30936C01D8
:100B300020936B0106C08CE093E090936C0180934E
:100B40006B01DF91CF91089587B1897F87B988B113
:100B5000866088B93C9A4498ECE6F0E08081866033
:100B60008083E1ECF0E080818068808387E690E01C
:100B70009093C5008093C40080818861808386E063
:100B80008093C20081E090E09093670180936601BA
:100B900010926A0108958091C00087FFFCCF809178
:100BA000C6000895982F8091C00085FFFCCF9093D8
:100BB000C60008951F920F920FB60F9211248F93C3
:100BC0009F9386B180937A01982F947090937301CC
:100BD000827080937201882329F4992359F081E06F
:100BE00090E004C0992331F482E090E09093670193
:100BF000809366019F918F910F900FBE0F901F9071
:100C000018951F920F920FB60F9211242F933F93B6
:100C10004F935F936F937F938F939F93AF93BF9304
:100C2000EF93FF938091C00087FFFCCF2091C60017
:100C30002093740180916201882381F410926401F1
:100C400010926301203419F481E0809362011092C4
:100C50007501109276011092770159C0813039F4F4
:100C60002B3219F02D3209F050C082E01AC08230C8
:100C7000F1F480916301909164018330910574F4E3
:100C8000203364F02A3384F4FC01EB58FE4F2083B8
:100C90000196909364018093630139C0233221F45B
:100CA00083E08093620133C004978CF12EC08330BF
:100CB00071F58091630190916401029734F1109273
:100CC000620181E080936A0100D000D000D0EDB7CE
:100CD000FEB7319685E791E0ADB7BEB712969C930B
:100CE0008E9311978CE591E09383828388E691E05F
:100CF000958384830E94F0068DB79EB706960FB643
:100D0000F8949EBF0FBE8DBF02C010926201FF918A
:100D1000EF91BF91AF919F918F917F916F915F9173
:100D20004F913F912F910F900FBE0F901F901895EC
:100D3000AA1BBB1B51E107C0AA1FBB1FA617B70701
:100D400010F0A61BB70B881F991F5A95A9F780951D
:100D50009095BC01CD01089597FB092E07260AD076
:100D600077FD04D0E5DF06D000201AF47095619578
:100D70007F4F0895F6F7909581959F4F0895AEE0C7
:100D8000B0E0E5ECF6E00C94B60C0D891E898F8975
:100D9000988D97FF02C080E090E801979E838D8335
:100DA0001A83098386E08C839E01255E3F4FCE0126
:100DB0000196698D7A8DA9010E940A074D815E8195
:100DC00057FD0AC02F813885421753070CF49A014A
:100DD000020F131FF80110822E96E4E00C94D20C3F
:100DE000AEE0B0E0E6EFF6E00C94B80C85E08C8362
:100DF0008B899C899A8389839E01295E3F4FCE010E
:100E000001966D897E89A9010E946B0A2E96E2E007
:100E10000C94D40CABE0B0E0E0E1F7E00C94A80C4B
:100E20003C012B015A01FC0117821682838181FD4E
:100E300003C06FEF7FEFC6C19AE0892E1E010894B0
:100E4000211C311CF3012381F20123FD859123FF35
:100E500081912F01882309F4B2C1853239F423FD31
:100E6000859123FF81912F01853229F490E0B30110
:100E70000E94010CE7CF982FFF24EE249924FFE174
:100E8000FF15D0F09B3269F09C3228F4903259F073
:100E9000933291F40EC09D3249F0903369F441E0F1
:100EA00024C052E0F52A84E0F82A28C098E0F92A04
:100EB00025C0E0E1FE2A22C0F7FC29C0892F80531B
:100EC0008A3070F4F6FE05C0989C902C1124980E80
:100ED00015C0E89CE02C1124E80EF0E2FF2A0EC0B9
:100EE0009E3229F4F6FC6BC140E4F42A07C09C361C
:100EF00019F450E8F52A02C0983649F4F20123FDAE
:100F0000959123FF91912F01992309F0B8CF892F53
:100F10008554833018F08052833038F444E050E038
:100F2000A40EB51E5FE359830FC0933631F093379B
:100F300079F0933509F056C020C0F501808189838E
:100F400042E050E0A40EB51E610101E010E012C0C5
:100F5000F501C080D180F6FC03C06FEF7FEF02C0C7
:100F6000692D70E042E050E0A40EB51EC6010E945B
:100F7000B40B8C015FE7F52214C0F501C080D1806D
:100F8000F6FC03C06FEF7FEF02C0692D70E042E016
:100F900050E0A40EB51EC6010E94A90B8C0150E8BA
:100FA000F52AF3FE07C01AC080E290E0B3010E9468
:100FB000010CEA948E2D90E008171907A8F30EC0D3
:100FC000F601F7FC8591F7FE81916F0190E0B30186
:100FD0000E94010CE110EA94015010400115110526
:100FE00079F7EAC0943611F0993669F5F7FE08C032
:100FF000F501208131814281538184E090E00AC073
:10100000F501808191819C01442737FD4095542F43
:1010100082E090E0A80EB91E9FE6F92257FF09C0B2
:1010200050954095309521953F4F4F4F5F4FE0E8E9
:10103000FE2ACA01B901A1012AE030E00E94470C52
:10104000D82ED21840C0953729F41F2D1F7E2AE0D4
:1010500030E01DC01F2D197F9F3661F0903720F4BE
:10106000983509F0ACC00FC0903739F0983709F0C7
:10107000A6C004C028E030E00AC0106114FD14606E
:1010800020E130E004C014FD166020E132E017FFDB
:1010900008C0F501608171818281938144E050E054
:1010A00008C0F50180819181BC0180E090E042E0C0
:1010B00050E0A40EB51EA1010E94470CD82ED218F4
:1010C0008FE7F82EF122F6FE0BC05EEFF522D91461
:1010D00038F4F4FE07C0F2FC05C08FEEF82202C01F
:1010E0001D2D01C0192DF4FE0DC0FE01ED0DF11DE9
:1010F0008081803319F499EEF92208C01F5FF2FE57
:1011000005C003C08F2D867809F01F5F0F2DF3FCFB
:1011100014C0F0FE0FC01E1510F09D2C0BC09D2CAE
:101120009E0C911A1E2D06C080E290E0B3010E9431
:10113000010C1F5F1E15C0F304C01E1510F4E11A48
:1011400001C0EE2404FF0FC080E390E0B3010E94D1
:10115000010C02FF1DC001FD03C088E790E00EC036
:1011600088E590E00BC0802F867891F001FF02C0E7
:101170008BE201C080E2F7FC8DE290E0B3010E94B7
:10118000010C06C080E390E0B3010E94010C9A9428
:10119000D914C0F3DA94F101ED0DF11D808190E0D6
:1011A000B3010E94010CDD20A9F706C080E290E0A7
:1011B000B3010E94010CEA94EE20C1F743CEF30183
:1011C00066817781CB012B96E2E10C94C40CFC0183
:1011D00020FD08C023FD05C022FF02C07383628387
:1011E000518340830895EF92FF920F931F9344FF22
:1011F00002C033E011C046FF02C034E00DC0DB0185
:10120000FC01AA0FBB1FEE1FFF1F1094D1F76A0F3E
:101210007B1F8E1F9F1F31E0660F771F881F991F4E
:101220003150D1F77B018C01E20EF11C011D111D23
:10123000A8019701B701CA011F910F91FF90EF908C
:1012400008950F931F93CF93DF938C01C8010E94E1
:10125000BF0BEC0197FD08C00E94960B892BB1F7DC
:10126000CE01B8010E942D0CCE01DF91CF911F91CC
:101270000F910895A0E0B0E0E0E4F9E00C94B00C28
:10128000EC01C62E5A01122F0E94BF0BAC018B320B
:1012900019F08D3251F41068CA9409F46DC0CE0172
:1012A0000E94BF0BAC0197FD67C06DEFD62ED12217
:1012B0008D2D807301F54033F1F4CA9409F447C0D1
:1012C000CE010E94BF0BAC0197FD41C082E0D82A3D
:1012D000483711F0483559F480E4D82ACA94B9F156
:1012E000CE010E94BF0BAC0199232CF430C0D6FC78
:1012F00002C080E1D82AEE24FF248701242F205346
:10130000283088F0D4FC09C02A3068F0D6FE05C029
:101310002F7D822F8151863028F0CA01BE010E94A4
:101320002D0C12C02750C801B7014D2D0E94F308A3
:101330007B018C0182E0D82ACA9461F0CE010E9420
:10134000BF0BAC0197FFDACFD1FC04C015C0EE246F
:10135000FF248701D7FE08C010950095F094E09413
:10136000E11CF11C011D111DC501B801A7012D2DA6
:101370000E94E70881E001C080E0CDB7DEB7EAE077
:101380000C94CC0CA0E2B0E0E8ECF9E00C94AC0CCE
:101390006C01A62E8A017901FE01319680E2DF01FF
:1013A0001D928A95E9F770E030E060E040E050E09F
:1013B0004F01A1E0B0E0F6018381F70183FD2591A3
:1013C00083FF21917F01222309F47EC02E3519F479
:1013D0004115510569F1872F90E08417950744F472
:1013E0002D3551F12D3221F4332329F431E021C080
:1013F000332309F4622F322F832F869586958695A5
:10140000F401E80FF11D832F87703D0102C0660CC7
:10141000771C8A95E2F7208126292083361711F45C
:1014200030E007C0361710F43F5FE6CF3150E4CF0D
:1014300071E04F5F5F4FBFCF332319F08E81806221
:101440008E83772359F0FE0131969E012F5D3F4F29
:10145000808180958193E217F307D1F7BB24B39481
:101460004E010894811C911CC6010E94BF0BAC0167
:1014700097FD22C0869586958695F401E80FF11DAB
:10148000808190E09A012770307002C09595879511
:101490002A95E2F780FD05C0CA01B6010E942D0C15
:1014A0000BC00115110519F0D8014D938D01AA94B7
:1014B000BB24AA20C9F602C0BB2031F401151105D6
:1014C00029F0F801108202C0EE24FF24C701A09683
:1014D000EEE00C94C80CA0E0B0E0E1E7FAE00C9478
:1014E000AC0C5C016B013A01FC0117821682882466
:1014F000EAC0812F90E00E94960B892B21F0C50154
:101500000E942109E0C0153249F4F601F3FC65910F
:10151000F3FE61916F01653269F415E2C5010E9425
:10152000BF0B97FDDCC0181709F4CDC0B5010E94B0
:101530002D0CDAC06A3219F0162F00E006C0F3FC59
:101540001591F3FE11916F0101E099240FC0026023
:10155000692D70E080E090E040E20E94F308962E52
:10156000F601F3FC1591F3FE11916F01212F205329
:101570002A3068F301FD03C099249A9403C099208E
:1015800009F4B2C0183621F01C3699F4F6010BC0EC
:10159000F601F3FC6591F3FE6191683619F06F0175
:1015A000162F07C008600460F3FC1591F3FE11913B
:1015B0006F01112309F498C088E690E0612F70E074
:1015C0000E949E0B892B09F48FC0802F00FF03C05F
:1015D000EE24FF2407C0F301E080F18022E030E038
:1015E000620E731E1E3651F4F5014681578160E08C
:1015F00070E0C701202F0E94E70865C0133691F400
:1016000081FD02C099249394C5010E94BF0B97FDF0
:1016100066C0E114F10419F0F70181937F019A94F7
:1016200099F74FC01B3559F4C501692DA7019601E3
:101630000E94C2096C01009709F043C03DC0C5017A
:101640000E94210997FD4BC01F3659F1103728F42D
:10165000143629F1193639F527C0133719F0153723
:1016600011F51DC0C5010E94BF0BEC0197FD11C013
:101670000E94960B892B29F0CE01B5010E942D0CFA
:1016800008C0E114F10419F0F701C1937F019A94A5
:1016900049F7E114F104A9F0F701108212C00062C9
:1016A00003C0006101C00064C501692DA701202F9E
:1016B0000E943A09882329F4F5018381807379F423
:1016C00013C000FF8394F501F380F601F3FC15913C
:1016D000F3FE11916F01112309F00BCF05C0882093
:1016E00019F42FEF3FEF02C0282D30E0C901CDB72C
:1016F000DEB7EEE00C94C80CF999FECF92BD81BD27
:10170000F89A992780B50895262FF999FECF92BDB2
:1017100081BDF89A019700B4021639F01FBA20BDB6
:101720000FB6F894FA9AF99A0FBE089591110DC167
:10173000803219F089508550D0F70895FC0105904A
:10174000061621F00020D9F7C00108953197CF0186
:101750000895FC010590615070400110D8F7809504
:1017600090958E0F9F1F0895FC016150704001906D
:101770000110D8F7809590958E0F9F1F0895CF93F5
:10178000DF93EC014B8140FF1AC046FF0AC04F7B3C
:101790004B838E819F8101969F838E838A81282F20
:1017A0002BC042FF13C0E881F9818081282F3327A5
:1017B00027FD30952115310529F440624B832FEF29
:1017C0003FEF1BC03196F983E88311C0EA85FB85A2
:1017D000CE0109959C0197FF0AC09B812F5F3F4F67
:1017E00011F080E201C080E1892B8B83E8CF8E81EC
:1017F0009F8101969F838E8330E0C901DF91CF9155
:1018000008950F931F93CF93DF938C01EB018B818E
:1018100081FF1BC082FF0DC02E813F818C819D8185
:101820002817390764F4E881F9810193F983E88383
:1018300006C0E885F985802F0995892B31F48E81C2
:101840009F8101969F838E8302C00FEF1FEFC80117
:10185000DF91CF911F910F9108959C01FB0183812E
:1018600080FF11C086FD0FC09FEF2F3F390759F051
:10187000228380648F7D83838681978101979783FC
:10188000868330E002C02FEF3FEFC9010895FA01CF
:10189000AA27283051F1203181F1E8946F936E7FAF
:1018A0006E5F7F4F8F4F9F4FAF4FB1E03ED0B4E0A0
:1018B0003CD0670F781F891F9A1FA11D680F791FE1
:1018C0008A1F911DA11D6A0F711D811D911DA11DF2
:1018D00020D009F468943F912AE0269F1124301902
:1018E000305D3193DEF6CF010895462F4770405D9D
:1018F0004193B3E00FD0C9F7F6CF462F4F70405D4C
:101900004A3318F0495D31FD4052419302D0A9F7A6
:10191000EACFB4E0A6959795879577956795BA95A0
:10192000C9F700976105710508959B01AC010A2E66
:1019300006945795479537952795BA95C9F7620F3D
:10194000731F841F951FA01D089599278827089548
:101950002F923F924F925F926F927F928F929F92BF
:10196000AF92BF92CF92DF92EF92FF920F931F93AD
:10197000CF93DF93CDB7DEB7CA1BDB0B0FB6F8945E
:10198000DEBF0FBECDBF09942A88398848885F849E
:101990006E847D848C849B84AA84B984C884DF800F
:1019A000EE80FD800C811B81AA81B981CE0FD11DF3
:1019B0000FB6F894DEBF0FBECDBFED010895F894C9
:0219C000FFCF57
:1019C2004D656C69737361205368756E00454520DF
:1019D2003130392050726F6A6563740025734C434D
:1019E2003A25642E25642573524D3A2564003E0043
:1019F2002000544553543A2025642E256400402B80
:101A020025642300484F5420005741524D004F4B4C
:101A120020200025642E2564202573002564000003
:00000001FF
